:020000040800F2
:10000000A80400209D0100083F18000831170008CF
:100010003D180008A9020008791D00080000000032
:10002000000000000000000000000000851800082B
:10003000AB02000800000000411800088718000803
:10004000B7010008B7010008B7010008B7010008B0
:10005000B7010008B7010008B7010008B7010008A0
:10006000B7010008B7010008B7010008B701000890
:10007000B7010008B7010008B7010008B701000880
:10008000B7010008B7010008B7010008B701000870
:10009000B7010008B7010008B7010008B701000860
:1000A000B701000835190008B70100082919000830
:1000B000B7010008B7010008B7010008B701000840
:1000C000B7010008B7010008B7010008B701000830
:1000D000B70100086D1D0008B7010008B70100084E
:1000E000B7010008B7010008B7010008B701000810
:1000F000B7010008B7010008B7010008B701000800
:10010000B7010008B7010008B7010008B7010008EF
:10011000B7010008B7010008B7010008B7010008DF
:10012000B7010008B7010008B7010008B7010008CF
:10013000B7010008B7010008B7010008B7010008BF
:10014000B7010008B7010008B7010008B7010008AF
:10015000B7010008B7010008B7010008B70100089F
:10016000B7010008B7010008B7010008B70100088F
:10017000B7010008B7010008B7010008000000003F
:10018000B7010008B7010008DFF80CD000F07AF8DA
:1001900000480047C51E0008A80400200648804704
:1001A00006480047FEE7FEE7FEE7FEE7FEE7FEE75C
:1001B000FEE7FEE7FEE7FEE71919000889010008DF
:1001C0002DE9F05F0546002092469B46884606468C
:1001D000814640241BE0284641464746224600F01F
:1001E00041F853465A46C01A914110D31146184659
:1001F000224600F028F82D1A67EB01084F462246E8
:100200000120002100F01FF817EB00094E41201ECD
:10021000A4F10104DFDC484631462A464346BDE8E6
:10022000F09FD2B201E000F8012B491EFBD27047CB
:100230000022F6E710B513460A4604461946FFF7B2
:10024000F0FF204610BD202A04DB203A00FA02F11C
:10025000002070479140C2F1200320FA03F31943B4
:1002600090407047202A04DB203A21FA02F0002156
:10027000704721FA02F3D040C2F1200291400843B6
:1002800019467047064C074D06E0E06840F0010350
:1002900094E8070098471034AC42F6D3FFF778FF94
:1002A000A0220008C0220008FEE7704772B602A034
:1002B00001F064FDFBE700006572726F725F6861B8
:1002C0006E646C65722100002DE9F0410446876D73
:1002D00000F066F9064694F835000025022806D09D
:1002E0008020606584F834500120BDE8F0812068EA
:1002F000016821F0160101602068416921F0800148
:100300004161206C08B9A06C20B12068016821F01F
:10031000080101602068016821F0010101600CE022
:1003200000F03EF9801B052807D9202060650320D6
:1003300084F8350084F83450D7E720680068C00797
:10034000EED194F85C103F208840B860012084F81A
:10035000350084F834500020C7E790F835100229A2
:1003600003D08021416501207047052180F83510B8
:100370000068016821F00101016000207047000061
:1003800070B5044600F00CF90546601C02D0044824
:100390000078044400F004F9401BA042FAD370BD79
:1003A000080000202DE9F84FDFF8BCA1002201254C
:1003B00003264FF00F090AF1040BAAF1040E00BF47
:1003C0000B6805FA02F42340A34270D10F7907F0BD
:1003D0000307012F01D0022F16D187684FEA420888
:1003E00006FA08FC27EA0C07D1F80CC00CFA08FC46
:1003F0004CEA070CC0F808C04768A7430C79C4F35F
:10040000001494403C4344600C79E443A4070AD0B0
:10041000C4684FEA420C06FA0CF7BC438F6807FA2F
:100420000CF72743C7600C7904F00304022C12D1A7
:10043000D40800EB840CDCF820405707FF0E09FAC3
:1004400007F824EA0804D1F8108008FA07F848EA07
:100450000408CCF8208004684FEA420C06FA0CF736
:10046000BC430F7907F0030707FA0CF7274307602F
:100470004C6814F4403F70D03C4C276847F48047E8
:100480002760246822F0030704F480440094384C69
:1004900007EB040CDCF8084897074FEA177809FACD
:1004A00008F7BC43334FB84202D1002724E054E0A0
:1004B000314FB84201D101271EE0304FB84201D17F
:1004C000022719E02E4FB84201D1032714E02D4F27
:1004D000B84201D104270FE02B4FB84201D10527C4
:1004E0000AE02A4FB84201D1062705E0284FB8425A
:1004F00001D1072700E0082707FA08F72743CCF8BF
:100500000878DAF800405746D1F804C09C435FEA07
:10051000CC2C00D51C433C60DBF800405F46D1F892
:1005200004C09C435FEA8C2C00D51C433C60DEF881
:1005300000407746D1F804C09C435FEA8C3C00D56C
:100540001C433C60084F083F3C68D1F804C09C4302
:100550005FEACC3C00D51C433C60521C102AFFF4DF
:100560002FAFBDE8F88F0000083C0140443802403E
:100570000030014000000240000402400008024038
:10058000000C02400010024000140240001802401B
:10059000001C02400AB1816170470904FBE70000BA
:1005A0000148806870470000080000200248816808
:1005B0000278114481607047080000200B4810B594
:1005C000016841F400710160016841F480610160DB
:1005D000016841F480710160032000F071F800208F
:1005E00000F006F800F024F8002010BD003C0240A6
:1005F00070B50D4D04464FF47A712878B1FBF0F0D8
:100600000A490968B1FBF0F000F00CFB48B9102C66
:1006100007D200222146501E00F032F800206C6004
:1006200070BD012070BD00000800002014000020F3
:100630000B4882B0016841F480410160006800F419
:10064000804000900648001F016841F08051016021
:10065000006800F080500090052002B000F030B833
:1006600044380240002809DB00F01F0201219140BC
:100670004009800000F1E020C0F800117047000040
:10068000F0B40E4B1B680C46C3F30223C3F10705FD
:10069000042D00D90425191D072901D2002300E0EB
:1006A000DB1E012606FA05F1491E214099409E40B5
:1006B000761E16403143F0BC01F070BB0CED00E03B
:1006C000064900F0070208684FF6FF03184040EAA9
:1006D0000220034A10430860704700000CED00E060
:1006E0000000FA052DE9F0470E46050065D0DFF859
:1006F0001481D8F80000F7B200F00700B04207D22A
:1007000088F80070D8F8000000F00700B04254D11B
:1007100028683D4C810712D5400703D5206840F476
:10072000E05020602878000703D5206840F460403E
:1007300020602068A96820F0F00008432060287835
:10074000C0072DD0304968680839012812D0022826
:1007500013D0032811D00968890700292DDA2168F0
:1007600021F0030101432160FFF71AFF814641F2A6
:10077000883A0EE009688903EFE709688901ECE728
:10078000FFF70EFFA0EB0901514502D90320BDE898
:10079000F0872068696800F00C00B0EB810FEFD1A2
:1007A000D8F80010404601F00701B14207D90770A0
:1007B000006800F00700B04201D00120E7E7287888
:1007C000400705D52068E96820F4E0500843206020
:1007D0002878000706D52068296920F4604040EA9F
:1007E000C100206000F038F82168084AC1F3031105
:1007F000515CC8400649086006480068FFF7F8FEEB
:100800000020C4E7003C024008380240882200086B
:10081000140000200C000020044805490068096805
:10082000044AC1F38221515CC84070471400002083
:100830000838024098220008044805490068096801
:10084000044AC1F34231515CC84070471400002093
:100850000838024098220008154810B5006810F0CA
:100860000C02144813D04110042A0FD0082A0ED1CC
:100870000F4C241F2268236802F03F025B0207D559
:100880002068C0F38810A0FB010106E0084610BDF7
:100890002168C1F38811A1FB00010023FFF790FC40
:1008A0002168C1F30141491C4900B0FBF1F010BDC2
:1008B000083802400024F4002DE9F84F04006ED0FF
:1008C0002078DFF84C93C007A9F104054AD009F15C
:1008D00004000168C1F38101012908D00068C0F358
:1008E000810002280AD1D9F80000400206D5286804
:1008F000800337D560680028E1D033E06068B0F548
:10090000803F10D0B0F5A02F286810D020F48030A0
:100910002860286820F4802028606068A8B1FFF76C
:100920003FFE06460DE0286840F48030F4E740F4CE
:1009300080202860F7E700BFFFF732FE801B6428A5
:1009400073D828688003F7D50CE0FFF729FE064628
:1009500005E000BFFFF724FE801B6428F0D828685C
:100960008003F7D42078DFF8AC8280074FF0000ACC
:100970003ED5A748001D016811F00C0F08D0006893
:10098000C0F3810002280BD1D9F80000400207D43F
:100990002868800716D5E068012800D112E033E10D
:1009A000E068B8B10120C8F80000FFF7F9FD06467D
:1009B00005E000BFFFF7F4FD801B0228C0D82868BF
:1009C0008007F7D52868216920F0F80040EAC100C7
:1009D00028600DE0C8F800A0FFF7E2FD064604E03D
:1009E000FFF7DEFD801B02281FD828688007F7D498
:1009F0002078000722D5864F87486169703771B12A
:100A000001210160FFF7CCFD064604E0FFF7C8FDB9
:100A1000801B022809D838688007F7D50EE0C0F897
:100A200000A0FFF7BDFD064605E082E0FFF7B8FD38
:100A3000801B02287DD838688007F7D420784007CB
:100A400068D5DFF8CCB100270BF13C0BDBF80000D8
:100A5000C0000BD4DBF8001041F08051CBF800103F
:100A6000DBF80000012700F0805000906B4E3068EA
:100A7000C00510D4306840F480703060FFF790FDFE
:100A8000009005E0FFF78CFD0099401A022850D82D
:100A90003068C005F6D55E4EA0686C3601280FD0D0
:100AA0000528306810D020F001003060306820F058
:100AB00004003060A068B8B1FFF772FD00900FE04D
:100AC000306840F00100F4E740F004003060F7E7E0
:100AD000FFF766FD0099411A41F28830814266D8DD
:100AE00030688007F4D50EE0FFF75AFD009007E06C
:100AF000FFF756FD0099411A41F28830814256D8DD
:100B000030688007F4D42FB1DBF8001021F0805159
:100B1000CBF80010A069C8B33D49091D0968C1F3AD
:100B2000810102294AD00228504607D0C8F8600047
:100B300000E03CE0FFF734FD04463BE04746C8F8E0
:100B40006000FFF72DFD064605E000BFFFF728FD1A
:100B5000801B02282BD828688001F7D4D4E907012C
:100B60000843A16A2E4A490802EB0141626A41EA40
:100B70008211084394F82C1040EA0161C9F8001072
:100B800001203866FFF70CFD044606E03EE000BF9A
:100B9000FFF706FD001B022809D828688001F7D559
:100BA00034E000BFFFF7FCFC001B022802D9032041
:100BB000BDE8F88F28688001F4D427E00128F7D039
:100BC000D9F80000E26900F4800191421CD1226A48
:100BD00000F03F01914217D147F6C071626A0140AF
:100BE000B1EB821F10D1A26A4FF0FF3300F4403105
:100BF00003EB5202B1EB024F06D194F82C1000F037
:100C00007060B0EB016F01D00120D1E70020CFE789
:100C10000438024000004742800E47420070004006
:100C20000000FFFF10B5401EB0F1807F01D301200E
:100C300010BD4FF0E02460610F21601701F0AEF8A5
:100C40000020A06107202061002010BD7047704780
:100C500070B590F83C20012A32D0012480F83C4045
:100C6000022280F83D2003685A689D6822F07006D1
:100C70000A6832435A60134B02689A4214D0B2F1A8
:100C8000804F11D0104B9A420ED0104B9A420BD08D
:100C90000F4B9A4208D00F4B9A4205D00E4B9A4206
:100CA00002D00E4B9A4204D1496825F080031943C3
:100CB000916080F83D40002180F83C10084670BDEE
:100CC000022070BD00000140000400400008004008
:100CD000000C0040000401400040014000180040AA
:100CE00010B5040003D094F83D0010B107E00120D6
:100CF00010BD002084F83C00204600F01FF80220C0
:100D000084F83D00211D206800F01AFE012084F8BF
:100D1000460084F83E0084F83F0084F8400084F8E0
:100D2000410084F8420084F8430084F8440084F8C9
:100D3000450084F83D00002010BD000010B586B0CD
:100D4000044614216846FFF773FA1B49206888425D
:100D50002FD11A48016841F001010160006800F0DC
:100D60000100059015481438016841F00101016047
:100D70000068012100F0010005904FF480700090A0
:100D80000220CDE90101CDE9030169460C48FFF7D6
:100D900009FB012211461920FFF772FC1920FFF709
:100DA00061FC022201211B20FFF76AFC1B20FFF7D8
:100DB00059FC06B010BD000000000140443802405C
:100DC0000000024070B5044690F83C000025012860
:100DD00017D0012684F83C60022084F83D0020688A
:100DE000826822F0770222F47F42826008685028ED
:100DF00038D00DDC20284FD005DC90B3102811D15D
:100E00004AE0022070BD302846D040280AD13BE09D
:100E100060282FD070280DD0B0F5805F03D0B0F5DA
:100E2000005F12D0012584F83D60002084F83C006A
:100E3000284670BDCB68D1E90121206800F0F1FDA2
:100E40002068816841F0770109E0CB68D1E9012190
:100E5000206800F0E6FD2068816841F480418160EF
:100E6000E1E719E0CA684968206800F0ECFD50210C
:100E7000206806E0CA684968206800F035FE6021F5
:100E8000206800F0D8FDCEE7CA684968206800F005
:100E9000DAFD40212068F4E7226801461046F0E7B9
:100EA00070B500682D49884256D12D48D0F82002EF
:100EB0002C4E2D4C002578B13068016A21F00A01D2
:100EC00001623068016A41F00201016230684562E6
:100ED000207840F010003EE00021224800F060FA47
:100EE00080B2608031680A6A22F00A020A623168C0
:100EF0000A6A0A622178CA062AD50B064FF4F972EB
:100F00001DD5A0F22D13934202D86068400009E07D
:100F1000A0F279524FF4C7739A4205D86068400036
:100F200040F00100606013E0A0F6990098420FD8ED
:100F30006078401C607001F0F000207008E0A0F5BF
:100F400080506938904203D841F08000207065706D
:100F5000207820F01000207070BD000000000140DB
:100F6000000040421C000020000000202DE9F0415C
:100F7000054690F83C0000260C46012810D00120C0
:100F800085F83C0072B1042A1CD0082A2CD00C2A07
:100F900050D00126002085F83C003046BDE8F081A5
:100FA0000220FBE7D4E90012E368286800F05CFD4A
:100FB0002868816921F00C01816128688169A26833
:100FC00011430FE0D4E90012E368286800F09EFDA9
:100FD0002868816921F44061816128688169A2687B
:100FE00041EA02218161D5E72868D4E9002C277BFA
:100FF000016A21F480710162C169036A21F0030171
:1010000041EA0C0121F0F00C39074FF420674CEA5B
:10101000116123F4206307EA02221A43C1610262CC
:101020002868C16921F00C01C1612868C169A26802
:10103000114328E02868D4E90027E168036A23F413
:1010400080530362D0F81CC0036A2CF4407C4CEA45
:1010500007274FF6FF7C27F470470CEA013139432C
:101060004FF4204723F4204307EA02321A43C161B8
:1010700002622868C16921F44061C1612868C169C0
:10108000A26841EA0221C16184E710B5040003D0DF
:1010900094F83D0010B107E0012010BD002084F855
:1010A0003C00204600F01EF8022084F83D00211D7F
:1010B000206800F045FC012084F8460084F83E00DA
:1010C00084F83F0084F8400084F8410084F842002E
:1010D00084F8430084F8440084F8450084F83D0017
:1010E000002010BD7047000030B50446002551B106
:1010F00004290DD0082910D094F8410094F8452017
:10110000012811D10EE094F83E0094F84220F7E750
:1011100094F83F0094F84320F2E794F8400094F8E4
:101120004420EDE7012A01D0012030BD022059B151
:10113000042912D0082919D084F8410084F8450008
:101140000C2944D0012540E084F83E0084F8420098
:101150002068C26842F0020210E084F83F0084F880
:1011600043002068C26842F0040207E084F84000AF
:1011700084F844002068C26842F00802C26001227C
:10118000206800F041FC14492068884214D0B0F176
:10119000804F11D0114988420ED0114988420BD09E
:1011A0001049884208D01049884205D00F4988422A
:1011B00002D00F49884204D1816801F00701062955
:1011C00003D0016841F001010160284630BD20686C
:1011D000C26842F01002D1E7000001400004004064
:1011E00000080040000C00400004014000400140A5
:1011F0000018004070B50446006801694FF0000512
:10120000C943890715D4C168C943890711D4E91EA8
:10121000016101202077206880698007204602D084
:10122000FFF73EFE04E000F098F8204600F096F844
:10123000257720680169C943490717D4C168C943A4
:10124000490713D46FF00401016102202077206860
:10125000806910F4407F204602D0FFF721FE04E0B1
:1012600000F07BF8204600F079F8257720680169C6
:10127000C943090716D4C168C943090712D46FF0DE
:1012800008010161042020772068C069800720469A
:1012900002D0FFF705FE04E000F05FF8204600F002
:1012A0005DF8257720680169C943C90617D4C1686C
:1012B000C943C90613D46FF01001016108202077DB
:1012C0002068C06910F4407F204602D0FFF7E8FD97
:1012D00004E000F042F8204600F040F8257720684E
:1012E0000169C943C90708D1C168C943C90704D105
:1012F000891E0161204600F033F820680169C94366
:10130000090609D4C168C943090605D46FF08001F4
:1013100001612046FFF79AFC20680169C94349062C
:1013200009D4C168C943490605D46FF04001016181
:10133000204600F04AF820680169C94389060BD4A9
:10134000C168C943890607D46FF0200101612046B6
:10135000BDE87040FFF77BBC70BD70477047000070
:1013600000680D49884215D10C4801780A0611D54C
:1013700021F0100101700A0702D141F04001017013
:10138000C9B201F00F020E2A01D2491C01E001F09E
:101390007001017070470000000001400000002053
:1013A0000246002041B1042909D008290AD00C299D
:1013B00001D11068006C70471068406B704710686E
:1013C000806B70471068C06B7047704770477047FC
:1013D000F8B5016804460868CA684B6910F00F0F39
:1013E0004FF000055AD003F0010602F4907737431E
:1013F00065D0C10705D0D10503D5216C41F00101AD
:101400002164410705D5D90703D0216C41F00201C1
:101410002164810705D5D90703D0216C41F004016F
:101420002164010707D502F02001314303D0216C6C
:1014300041F008012164216C00293BD0800604D5CD
:10144000900602D5204600F0ABFB20684069216C75
:10145000C0F3801001F00801014320462BD000F0BA
:1014600078FB20684069400621D52068143050E898
:10147000001F21F0400140E80012002AF5D1A06BC6
:10148000A8B16C490165A06BFEF767FF002811D079
:10149000A06B016D01B0BDE8F040084783060ED592
:1014A00093060CD52046BDE8F84000F079BB2046F5
:1014B000FFF78DFFF8BDFFF78AFF2564F8BD266BA7
:1014C0002023012E79D1C60677D5D60675D50868B2
:1014D000486800904869400640D5A16B086840689C
:1014E0000004000CEAD0A28D8242E7D9E085C869E9
:1014F000B0F5807F2DD020680C3050E8001F21F41B
:10150000807140E80012002AF5D12068143050E8BC
:10151000001F21F0010140E80012002AF5D12068E7
:10152000143050E8001F21F0400140E80012002A6A
:10153000F5D184F83E30256320680C3050E8001F58
:1015400021F0100140E80012002AF5D1A06BFEF74F
:10155000BBFEA08DE18D401A81B229E0A08DE18D06
:10156000401A81B2E08D0028A8D00029A6D02068BA
:101570000C3050E8002F22F4907240E80026002E34
:10158000F5D12068143050E8002F22F0010240E825
:101590000026002EF5D184F83E30256320680C30FB
:1015A00050E8002F22F0100240E80023002BF5D174
:1015B0002046FFF70BFFF8BDFFE705062BD5150604
:1015C00029D594F83D002128F5D1A068B0F5805FB9
:1015D00001D12069B0B1206A411C216221680078E4
:1015E0004860E08C401E0004000CE084E3D12068D9
:1015F000C16821F08001C1602068C16841F04001EC
:10160000C160D8E7206A0088C0F308004860206AFB
:10161000801C2062E5E74006CDD55006CBD5CA68D0
:10162000204622F04002CA6084F83D3000F07FF886
:10163000C1E70000431B000870B5040004D094F813
:101640003D00002510B106E0012070BD84F83C503B
:10165000204600F023F8242084F83D002068C1686B
:1016600021F40051C160204600F0FAFA20680169B7
:1016700021F4904101612068416921F02A01416112
:101680002068C16841F40051C1602564202084F8BD
:101690003D0084F83E00002070BD0000F0B587B02A
:1016A000044614216846FEF7C3FD1D4920688842A0
:1016B00034D11C480025016841F010010160006828
:1016C00000F01000059017481438016841F001013E
:1016D00001600068022400F0010005904FF40070E2
:1016E000CDE9000402AA0120072682E851000E4F2E
:1016F00069463846FEF756FE60028DE83100032049
:10170000CDE9030669463846FEF74CFE0322114632
:101710002520FEF7B5FF2520FEF7A4FF07B0F0BD9A
:1017200000100140443802400000024070477047FA
:10173000FEE7000030B587B014216846FEF778FD5B
:101740001A48016841F004010160016801F00401D8
:101750000591016841F020010160016801F020015C
:101760000591016841F080010160016801F080018C
:101770000591016841F00101016000680C4D00F025
:1017800001004FF4C0640590012221462846FEF76F
:1017900001FF01210220CDE90210CDE90041694697
:1017A0002846FEF7FFFD07B030BD0000303802408C
:1017B0000014024010B58AB000241F480494059418
:1017C000069407940894099400940194029419498A
:1017D00003940160A721C0E9011442F20F71C0E92E
:1017E000031444618461FFF77BFAF0B94FF4805031
:1017F000049004A91048FFF7E5FAB0B90E48FFF7C6
:1018000044FC90B9089408A90B480994FFF720FA02
:1018100058B90120CDE900400294002269460648EB
:101820000394FFF7A3FB002801D0FEF73FFD0AB0A9
:1018300010BD0000000001401C000020FEE7FEE794
:101840007047000030B50E4A00201478610615D5A7
:1018500051686FEA11450B0EEDB29D4209D1C1F3FB
:101860000723C943C9B2994203D1180001D0210608
:1018700004D424F0400111700021517030BD0000EB
:10188000000000207047FEF791BE000030B593B015
:1018900030216846FEF7CCFC14210CA8FEF7C8FCEA
:1018A0001B480025016841F080510160006800F08C
:1018B000805011901748016841F480410160006830
:1018C000022400F480401190012000900004019057
:1018D0008001CDE9064008AA0420A82182E813006F
:1018E0000B906846FEF7E8FF70B90CA90F2081E85D
:1018F00031004FF4A0500F90E002109005210CA889
:10190000FEF7F0FE002801D0FEF7D0FC13B030BD8A
:1019100040380240007000400248016841F4700104
:101920000160704788ED00E00148FFF763BC0000EC
:101930001C0000200148FFF75DBC00001C000020D7
:10194000F0B50268254C264D264E274F274B4FF009
:10195000804CA04209D0604507D0A84205D0B042D3
:1019600003D0B84201D0984204D122F0700E4A68E8
:1019700042EA0E02A0421BD0604519D0A84217D0FF
:10198000B04215D0B84213D0984211D0184DA84299
:101990000ED0184DA8420BD0174DA84208D0174DB5
:1019A000A84205D0164DA84202D0164DA84203D138
:1019B00022F44075CA682A434D6922F080022A4306
:1019C00002608A68C2620A688262A04201D09842BC
:1019D00001D10969016301214161F0BD00000140AD
:1019E0000004004000080040000C004000040140DA
:1019F0000040014000440140004801400018004000
:101A0000001C00400020004010B501F01F03012120
:101A1000046A99408C430462016A9A40114301624E
:101A200010BD10B5846842EA032224F47F440A43BF
:101A30002243826010BD826822F070020A4342F0A5
:101A400007018160704710B5036A046A24F001043D
:101A50000462846924F0F00444EA021423F00A02C8
:101A60000A438461026210BD70B5046A24F0010467
:101A700004628469056A154EB04214D0B0F1804FFB
:101A800011D0134EB0420ED0124EB0420BD0124EB7
:101A9000B04208D0114EB04205D0114EB04202D033
:101AA000104EB04203D124F00304144301E044F08B
:101AB00001041A0724F0F00444EA126225F00A0334
:101AC00001F00A0119438261016270BD000001400A
:101AD0000004004000080040000C004000040140E9
:101AE000004001400018004010B5036A23F01003C5
:101AF00003628369046A23F4704343EA023224F0E8
:101B0000A00343EA01118261016210BD30B5046A8D
:101B100024F0100404628469056A24F4407444EAE1
:101B2000022222F470444FF6FF7202EA033222438B
:101B3000A02425F0A00304EA011119438261016287
:101B400030BD10B5806B0021C185C184FFF73FFC1B
:101B500010BD01680C3151E8002F22F4907241E869
:101B60000023002BF5D10168143151E8002F22F039
:101B7000010241E80023002BF5D1016B012909D1B5
:101B800001680C3151E8002F22F0100241E80023D7
:101B9000002BF5D1202180F83E1000210163704711
:101BA00008B590F83E10222901D0022008BD8268B5
:101BB0004FF480539A4201D1016921B1816A9A425E
:101BC0001BD04AB10AE00268816A5268C2F3080277
:101BD0000A80816A891C08E0026972B10268526851
:101BE00002F07F020A70816A491C8162C18D491E20
:101BF0000904090CC18503D019E002685268F1E7B5
:101C00000168CA6822F02002CA600168CA6822F42A
:101C10008072CA6001684A6922F001024A6120218B
:101C200080F83E10016B012903D0FFF77FFD0020F3
:101C300008BD0021016301680C3151E8002F22F03A
:101C4000100241E80023002BF5D101680A68D20692
:101C500002D50A6849680091818DFFF7B7FBE6E776
:101C600070B5044600680169E26821F440511143EF
:101C700001612169A068E269084361691143084371
:101C80002168CA6849F20C639A430243CA6020681B
:101C90004169A26921F440711143416131492068D1
:101CA000884202D03049884202D1FEF7C5FD01E0EA
:101CB000FEF7B2FDE2690023192164253226B2F550
:101CC000004F626828D0A0FB0101930F9200FEF73D
:101CD00077FA0146B0FBF5F06FF01802504301EBC4
:101CE000800006EB0010B0FBF5F000F0F002B1FB55
:101CF000F5F002EB0012B1FBF5F06FF0180358435A
:101D000001EB800006EB0010B0FBF5F000F00F00D7
:101D100021681044886070BDA0FB010192185B41EE
:101D2000FEF74EFA0146B0FBF5F00201B1FBF5F00B
:101D30006FF01803584301EB800006EBC000B0FBC6
:101D4000F5F000F0F80002EB4002B1FBF5F058436B
:101D500001EB800006EBC000B0FBF5F000F00700DF
:101D6000D6E7000000100140001401400148FFF7D1
:101D70002FBB000064000020FEE700000FB4054BFD
:101D800010B503A9044A029800F027F810BC5DF8CA
:101D900014FB0000B11E0008180000200907090EFE
:101DA000002804DB00F1E02080F80014704700F008
:101DB0000F0000F1E02080F8141D704702E008C811
:101DC000121F08C1002AFAD170477047002001E0B5
:101DD00001C1121F002AFBD170472DE9F84F994627
:101DE000924688460546002706E025280AD0514637
:101DF0004A4690476D1C7F1C28780028F5D138464C
:101E0000BDE8F88F002315F8011F18462E2915D1BB
:101E100015F8011F04232A290DD06FF02F0229780D
:101E2000A1F13004092C09D800EB800002EB40003E
:101E300008446D1CF3E758F8040B6D1C2A78002A3F
:101E4000DDD0632A07D0732A0FD0104651464A4688
:101E500090477F1C2AE018F8042B8DF80020002101
:101E60008DF801106E46012103E058F8046B4FF025
:101E7000FF315A074FF0000401D409E0641C84428A
:101E80000BDA8C42FADB325D002AF7D105E0641CE4
:101E90008C42FCDB305D0028F9D1274404E016F8C1
:101EA000010B51464A469047641EF8D26D1CA3E7C9
:101EB00003490A685206FCD5C2B24A607047000066
:101EC000001001402DE9F04FB4A08BB0D0E9001014
:101ED000CDE90110B3A04FF00008D0E90010CDE922
:101EE0000310C14645460426FEF768FBFFF7CEFC0B
:101EF000FFF720FCFFF75EFCAD48AC494FF0000A4D
:101F000001604FF4E131C0E9011A0C22C0F80CA0C5
:101F1000C0E904A2C0F818A0C0F81CA0FFF78CFB11
:101F200008B1FEF7C3F9A24848380068C16841F01B
:101F30000101C1609E4800214838FFF7D5F8DFF85D
:101F400074B201AFFFF77EFC00286ED0622835D056
:101F500017DC30284ED00BDC102857D003DC48B3F8
:101F6000022864D12CE018284AD022285FD12DE025
:101F700038284ED0422852D0522857D05A2856D10D
:101F80004AE0A82826D00CDC902825D004DC68285C
:101F900024D07A284BD136E0982822D0A22846D1E6
:101FA0000AE0B02823D0C2280ED0E02810D0E228C2
:101FB0003DD107E080A43AE081A438E082A436E075
:101FC00082A434E083A432E085A430E086A42EE02D
:101FD00087A42CE088A42AE089A428E08AA43120E0
:101FE0001FE08AA432201CE009F101091FE088A447
:101FF000332016E003A8342286A400F80920F3E772
:1020000085A435200DE085A436200AE084A437207D
:1020100007E084A4382004E083A4392001E083A4ED
:10202000302003A901F80900DEE791E080A42146F1
:1020300081A0FFF7A3FE8DF810A08DF808A003A9DA
:102040007EA0FFF79BFE01A97CA0FFF797FE002270
:102050004FF400715846FEF79DFAB9F1040F77D19D
:102060004FF00009484603A93A5C0B5C9A4201D143
:1020700008F10108401C0428F6DBB8F1040F65D113
:10208000012251025C465846FEF784FA00224FF4C2
:1020900080612046FEF77EFA69A0FFF76FFE00BF61
:1020A000FFF7D0FBA22818D00228F9D147A444A0FA
:1020B000844214D100224FF400715C465846FEF76A
:1020C00069FA012291022046FEF764FA67A0FFF741
:1020D00055FE0BB00020BDE8F08F39A4E7E73BA028
:1020E000844233D164A0FFF749FE4FF47A7800BFF1
:1020F000FFF7A8FB5A284BD00CDC302839D004DC81
:1021000010283FD018280DD136E038283DD042287D
:1021100008D140E0682820D07A2830D098281FD0F5
:10212000B02823D024A44046FEF72AF922A08442F6
:10213000DED0214640A0FFF721FE002ED8D1042694
:1021400001A93EA0FFF71AFE0025A9464FF000089E
:102150004FF47A70FEF714F9F4E62BA4312001E075
:102160002AA4322078556D1C761EDCE728A4332083
:10217000F8E728A43420F5E727A43520F2E727A4C0
:102180003620EFE726A43720ECE726A43820E9E73D
:1021900025A43920E6E725A43020E3E731323334A3
:1021A000000000003030303000000000001001401E
:1021B00064000020001402404552524F52000000BB
:1021C000504F57455200000055500000504C4159A7
:1021D00000000000414C49454E54454B00000000B2
:1021E00052494748540000004C4546540000000046
:1021F000564F4C2D00000000444F574E0000000089
:10220000564F4C2B0000000031000000320000004F
:1022100033000000340000003500000036000000EC
:1022200037000000380000003900000030000000D6
:1022300044454C455445000025732000257300009B
:102240000AC3DCC2EBD5FDC8B7210A504F5745522F
:10225000A3BACDCBB3F6CFB5CDB3A3BB504C415948
:10226000A3BAD0DEB8C4C3DCC2EB0000B3C9B9A6C0
:10227000CDCBB3F600000000BFAACABCD0DEB8C404
:10228000C3DCC2EB00000000000000000000000002
:10229000010203040607080900000000010203040C
:1022A000C0220008000000201C000000BC1D000827
:1022B000DC2200081C0000208C040000CC1D00085B
:1022C00000000000000000000100000010000000FD
:0C22D000000000000024F40000000000EA
:040000050800018965
:00000001FF
